{
  "contractName": "DDOS",
  "abi": [
    {
      "inputs": [],
      "stateMutability": "nonpayable",
      "type": "constructor"
    },
    {
      "anonymous": false,
      "inputs": [
        {
          "indexed": false,
          "internalType": "address",
          "name": "from_account",
          "type": "address"
        },
        {
          "indexed": false,
          "internalType": "address",
          "name": "for_account",
          "type": "address"
        },
        {
          "indexed": false,
          "internalType": "string",
          "name": "message",
          "type": "string"
        },
        {
          "indexed": false,
          "internalType": "uint256",
          "name": "bsize",
          "type": "uint256"
        }
      ],
      "name": "bandwidth_help",
      "type": "event"
    },
    {
      "inputs": [
        {
          "internalType": "uint256",
          "name": "",
          "type": "uint256"
        }
      ],
      "name": "AIPool",
      "outputs": [
        {
          "internalType": "address",
          "name": "",
          "type": "address"
        }
      ],
      "stateMutability": "view",
      "type": "function",
      "constant": true
    },
    {
      "inputs": [],
      "name": "bsize",
      "outputs": [
        {
          "internalType": "uint256",
          "name": "",
          "type": "uint256"
        }
      ],
      "stateMutability": "view",
      "type": "function",
      "constant": true
    },
    {
      "inputs": [],
      "name": "minimumCollateral",
      "outputs": [
        {
          "internalType": "uint256",
          "name": "",
          "type": "uint256"
        }
      ],
      "stateMutability": "view",
      "type": "function",
      "constant": true
    },
    {
      "inputs": [
        {
          "internalType": "address",
          "name": "",
          "type": "address"
        }
      ],
      "name": "networkNodes",
      "outputs": [
        {
          "internalType": "uint256",
          "name": "",
          "type": "uint256"
        }
      ],
      "stateMutability": "view",
      "type": "function",
      "constant": true
    },
    {
      "inputs": [],
      "name": "noOfNodes",
      "outputs": [
        {
          "internalType": "uint256",
          "name": "",
          "type": "uint256"
        }
      ],
      "stateMutability": "view",
      "type": "function",
      "constant": true
    },
    {
      "inputs": [],
      "name": "victim_node",
      "outputs": [
        {
          "internalType": "address",
          "name": "",
          "type": "address"
        }
      ],
      "stateMutability": "view",
      "type": "function",
      "constant": true
    },
    {
      "stateMutability": "payable",
      "type": "receive",
      "payable": true
    },
    {
      "inputs": [
        {
          "internalType": "address",
          "name": "helper",
          "type": "address"
        },
        {
          "internalType": "address",
          "name": "victim",
          "type": "address"
        },
        {
          "internalType": "uint256",
          "name": "_bsize",
          "type": "uint256"
        }
      ],
      "name": "helped",
      "outputs": [],
      "stateMutability": "nonpayable",
      "type": "function"
    },
    {
      "inputs": [],
      "name": "getBalance",
      "outputs": [
        {
          "internalType": "uint256",
          "name": "",
          "type": "uint256"
        }
      ],
      "stateMutability": "view",
      "type": "function",
      "constant": true
    },
    {
      "inputs": [],
      "name": "victimAddress",
      "outputs": [
        {
          "internalType": "address",
          "name": "",
          "type": "address"
        }
      ],
      "stateMutability": "view",
      "type": "function",
      "constant": true
    },
    {
      "inputs": [],
      "name": "helperAddress",
      "outputs": [
        {
          "internalType": "address payable",
          "name": "",
          "type": "address"
        }
      ],
      "stateMutability": "view",
      "type": "function",
      "constant": true
    },
    {
      "inputs": [],
      "name": "retrieve_bsize",
      "outputs": [
        {
          "internalType": "uint256",
          "name": "",
          "type": "uint256"
        }
      ],
      "stateMutability": "view",
      "type": "function",
      "constant": true
    },
    {
      "inputs": [],
      "name": "reward",
      "outputs": [],
      "stateMutability": "nonpayable",
      "type": "function"
    },
    {
      "inputs": [
        {
          "internalType": "address",
          "name": "nodeAddress",
          "type": "address"
        }
      ],
      "name": "nodeAssets",
      "outputs": [
        {
          "internalType": "uint256",
          "name": "",
          "type": "uint256"
        }
      ],
      "stateMutability": "view",
      "type": "function",
      "constant": true
    },
    {
      "inputs": [],
      "name": "getRewardedNodes",
      "outputs": [
        {
          "internalType": "address[]",
          "name": "",
          "type": "address[]"
        }
      ],
      "stateMutability": "view",
      "type": "function",
      "constant": true
    },
    {
      "inputs": [],
      "name": "getVictimNodes",
      "outputs": [
        {
          "internalType": "address[]",
          "name": "",
          "type": "address[]"
        }
      ],
      "stateMutability": "view",
      "type": "function",
      "constant": true
    },
    {
      "inputs": [],
      "name": "numberOfNodes",
      "outputs": [
        {
          "internalType": "uint256",
          "name": "",
          "type": "uint256"
        }
      ],
      "stateMutability": "view",
      "type": "function",
      "constant": true
    },
    {
      "inputs": [],
      "name": "allnodes",
      "outputs": [
        {
          "internalType": "address[]",
          "name": "",
          "type": "address[]"
        }
      ],
      "stateMutability": "view",
      "type": "function",
      "constant": true
    }
  ],
  "bytecode": "0x608060405234801561001057600080fd5b5033600260006101000a81548173ffffffffffffffffffffffffffffffffffffffff021916908373ffffffffffffffffffffffffffffffffffffffff160217905550671bc16d674ec80000600781905550611543806100706000396000f3fe6080604052600436106101025760003560e01c80635618a55c11610095578063babe7c7411610064578063babe7c741461046f578063c41ca5d31461049a578063d3d71f7f146104d7578063e949c38214610514578063f5ea15d41461053d57610268565b80635618a55c146103c35780637974db4b146103ee578063a8ba09a214610419578063b64f15581461044457610268565b80632b777e18116100d15780632b777e18146103175780632ba9d956146103425780632da500161461036d57806354d74e1f1461039857610268565b80630c314bc01461026d57806312065fe0146102aa578063228cb733146102d557806326e13b9b146102ec57610268565b366102685760075434101561014c576040517f08c379a000000000000000000000000000000000000000000000000000000000815260040161014390610eb1565b60405180910390fd5b6000600960003373ffffffffffffffffffffffffffffffffffffffff1673ffffffffffffffffffffffffffffffffffffffff16815260200190815260200160002054141561021057600860008154809291906101a790610f0a565b91905055506000339080600181540180825580915050600190039060005260206000200160009091909190916101000a81548173ffffffffffffffffffffffffffffffffffffffff021916908373ffffffffffffffffffffffffffffffffffffffff1602179055505b34600960003373ffffffffffffffffffffffffffffffffffffffff1673ffffffffffffffffffffffffffffffffffffffff168152602001908152602001600020600082825461025f9190610f53565b92505081905550005b600080fd5b34801561027957600080fd5b50610294600480360381019061028f919061100c565b610568565b6040516102a19190611048565b60405180910390f35b3480156102b657600080fd5b506102bf610580565b6040516102cc9190611048565b60405180910390f35b3480156102e157600080fd5b506102ea610618565b005b3480156102f857600080fd5b50610301610a32565b60405161030e9190611072565b60405180910390f35b34801561032357600080fd5b5061032c610a5c565b6040516103399190611048565b60405180910390f35b34801561034e57600080fd5b50610357610a66565b6040516103649190611048565b60405180910390f35b34801561037957600080fd5b50610382610a6c565b60405161038f919061114b565b60405180910390f35b3480156103a457600080fd5b506103ad610afa565b6040516103ba9190611048565b60405180910390f35b3480156103cf57600080fd5b506103d8610b04565b6040516103e5919061114b565b60405180910390f35b3480156103fa57600080fd5b50610403610b92565b604051610410919061118e565b60405180910390f35b34801561042557600080fd5b5061042e610bbc565b60405161043b919061114b565b60405180910390f35b34801561045057600080fd5b50610459610c4a565b6040516104669190611072565b60405180910390f35b34801561047b57600080fd5b50610484610c70565b6040516104919190611048565b60405180910390f35b3480156104a657600080fd5b506104c160048036038101906104bc91906111d5565b610c76565b6040516104ce9190611072565b60405180910390f35b3480156104e357600080fd5b506104fe60048036038101906104f9919061100c565b610cb5565b60405161050b9190611048565b60405180910390f35b34801561052057600080fd5b5061053b60048036038101906105369190611202565b610cfe565b005b34801561054957600080fd5b50610552610e4e565b60405161055f9190611048565b60405180910390f35b60096020528060005260406000206000915090505481565b6000600260009054906101000a900473ffffffffffffffffffffffffffffffffffffffff1673ffffffffffffffffffffffffffffffffffffffff163373ffffffffffffffffffffffffffffffffffffffff1614610612576040517f08c379a0000000000000000000000000000000000000000000000000000000008152600401610609906112a1565b60405180910390fd5b47905090565b600260009054906101000a900473ffffffffffffffffffffffffffffffffffffffff1673ffffffffffffffffffffffffffffffffffffffff163373ffffffffffffffffffffffffffffffffffffffff16146106a8576040517f08c379a000000000000000000000000000000000000000000000000000000000815260040161069f906112a1565b60405180910390fd5b600160008054905010156106f1576040517f08c379a00000000000000000000000000000000000000000000000000000000081526004016106e89061130d565b60405180910390fd5b600060096000600560009054906101000a900473ffffffffffffffffffffffffffffffffffffffff1673ffffffffffffffffffffffffffffffffffffffff1673ffffffffffffffffffffffffffffffffffffffff1681526020019081526020016000205411610795576040517f08c379a000000000000000000000000000000000000000000000000000000000815260040161078c9061139f565b60405180910390fd5b6000670de0b6b3a76400006107a8610a5c565b6107b291906113bf565b90506107bc610b92565b600160006101000a81548173ffffffffffffffffffffffffffffffffffffffff021916908373ffffffffffffffffffffffffffffffffffffffff160217905550600160009054906101000a900473ffffffffffffffffffffffffffffffffffffffff1673ffffffffffffffffffffffffffffffffffffffff166108fc829081150290604051600060405180830381858888f19350505050158015610864573d6000803e3d6000fd5b508060096000600560009054906101000a900473ffffffffffffffffffffffffffffffffffffffff1673ffffffffffffffffffffffffffffffffffffffff1673ffffffffffffffffffffffffffffffffffffffff16815260200190815260200160002060008282546108d69190611419565b92505081905550600060096000600560009054906101000a900473ffffffffffffffffffffffffffffffffffffffff1673ffffffffffffffffffffffffffffffffffffffff1673ffffffffffffffffffffffffffffffffffffffff168152602001908152602001600020541415610960576008600081548092919061095a9061144d565b91905055505b6003600160009054906101000a900473ffffffffffffffffffffffffffffffffffffffff169080600181540180825580915050600190039060005260206000200160009091909190916101000a81548173ffffffffffffffffffffffffffffffffffffffff021916908373ffffffffffffffffffffffffffffffffffffffff1602179055506000600160006101000a81548173ffffffffffffffffffffffffffffffffffffffff021916908373ffffffffffffffffffffffffffffffffffffffff160217905550600060068190555050565b6000600560009054906101000a900473ffffffffffffffffffffffffffffffffffffffff16905090565b6000600654905090565b60085481565b60606000805480602002602001604051908101604052809291908181526020018280548015610af057602002820191906000526020600020905b8160009054906101000a900473ffffffffffffffffffffffffffffffffffffffff1673ffffffffffffffffffffffffffffffffffffffff1681526020019060010190808311610aa6575b5050505050905090565b6000600854905090565b60606003805480602002602001604051908101604052809291908181526020018280548015610b8857602002820191906000526020600020905b8160009054906101000a900473ffffffffffffffffffffffffffffffffffffffff1673ffffffffffffffffffffffffffffffffffffffff1681526020019060010190808311610b3e575b5050505050905090565b6000600160009054906101000a900473ffffffffffffffffffffffffffffffffffffffff16905090565b60606004805480602002602001604051908101604052809291908181526020018280548015610c4057602002820191906000526020600020905b8160009054906101000a900473ffffffffffffffffffffffffffffffffffffffff1673ffffffffffffffffffffffffffffffffffffffff1681526020019060010190808311610bf6575b5050505050905090565b600560009054906101000a900473ffffffffffffffffffffffffffffffffffffffff1681565b60075481565b60008181548110610c8657600080fd5b906000526020600020016000915054906101000a900473ffffffffffffffffffffffffffffffffffffffff1681565b6000600960008373ffffffffffffffffffffffffffffffffffffffff1673ffffffffffffffffffffffffffffffffffffffff168152602001908152602001600020549050919050565b806006819055507f4dc12a65edf5242ef5f8da51d512963dad319ac65e5513555215eeb8dbe8779c8383600654604051610d3a939291906114c3565b60405180910390a182600160006101000a81548173ffffffffffffffffffffffffffffffffffffffff021916908373ffffffffffffffffffffffffffffffffffffffff16021790555081600560006101000a81548173ffffffffffffffffffffffffffffffffffffffff021916908373ffffffffffffffffffffffffffffffffffffffff1602179055506004600560009054906101000a900473ffffffffffffffffffffffffffffffffffffffff169080600181540180825580915050600190039060005260206000200160009091909190916101000a81548173ffffffffffffffffffffffffffffffffffffffff021916908373ffffffffffffffffffffffffffffffffffffffff160217905550505050565b60065481565b600082825260208201905092915050565b7f506c6561736520706179206d696e696d756d2032206574686572000000000000600082015250565b6000610e9b601a83610e54565b9150610ea682610e65565b602082019050919050565b60006020820190508181036000830152610eca81610e8e565b9050919050565b7f4e487b7100000000000000000000000000000000000000000000000000000000600052601160045260246000fd5b6000819050919050565b6000610f1582610f00565b91507fffffffffffffffffffffffffffffffffffffffffffffffffffffffffffffffff821415610f4857610f47610ed1565b5b600182019050919050565b6000610f5e82610f00565b9150610f6983610f00565b9250827fffffffffffffffffffffffffffffffffffffffffffffffffffffffffffffffff03821115610f9e57610f9d610ed1565b5b828201905092915050565b600080fd5b600073ffffffffffffffffffffffffffffffffffffffff82169050919050565b6000610fd982610fae565b9050919050565b610fe981610fce565b8114610ff457600080fd5b50565b60008135905061100681610fe0565b92915050565b60006020828403121561102257611021610fa9565b5b600061103084828501610ff7565b91505092915050565b61104281610f00565b82525050565b600060208201905061105d6000830184611039565b92915050565b61106c81610fce565b82525050565b60006020820190506110876000830184611063565b92915050565b600081519050919050565b600082825260208201905092915050565b6000819050602082019050919050565b6110c281610fce565b82525050565b60006110d483836110b9565b60208301905092915050565b6000602082019050919050565b60006110f88261108d565b6111028185611098565b935061110d836110a9565b8060005b8381101561113e57815161112588826110c8565b9750611130836110e0565b925050600181019050611111565b5085935050505092915050565b6000602082019050818103600083015261116581846110ed565b905092915050565b600061117882610fae565b9050919050565b6111888161116d565b82525050565b60006020820190506111a3600083018461117f565b92915050565b6111b281610f00565b81146111bd57600080fd5b50565b6000813590506111cf816111a9565b92915050565b6000602082840312156111eb576111ea610fa9565b5b60006111f9848285016111c0565b91505092915050565b60008060006060848603121561121b5761121a610fa9565b5b600061122986828701610ff7565b935050602061123a86828701610ff7565b925050604061124b868287016111c0565b9150509250925092565b7f596f7520617265206e6f742073757065726e6f64650000000000000000000000600082015250565b600061128b601583610e54565b915061129682611255565b602082019050919050565b600060208201905081810360008301526112ba8161127e565b9050919050565b7f4e6f646573206c657373207468616e2031000000000000000000000000000000600082015250565b60006112f7601183610e54565b9150611302826112c1565b602082019050919050565b60006020820190508181036000830152611326816112ea565b9050919050565b7f56696374696d206e6f646520646f6e277420686176652066756e647320666f7260008201527f2070726f74656374696f6e2e0000000000000000000000000000000000000000602082015250565b6000611389602c83610e54565b91506113948261132d565b604082019050919050565b600060208201905081810360008301526113b88161137c565b9050919050565b60006113ca82610f00565b91506113d583610f00565b9250817fffffffffffffffffffffffffffffffffffffffffffffffffffffffffffffffff048311821515161561140e5761140d610ed1565b5b828202905092915050565b600061142482610f00565b915061142f83610f00565b92508282101561144257611441610ed1565b5b828203905092915050565b600061145882610f00565b9150600082141561146c5761146b610ed1565b5b600182039050919050565b7f68656c70656420666f722062616e647769647468000000000000000000000000600082015250565b60006114ad601483610e54565b91506114b882611477565b602082019050919050565b60006080820190506114d86000830186611063565b6114e56020830185611063565b81810360408301526114f6816114a0565b90506115056060830184611039565b94935050505056fea2646970667358221220045b539c2c4bb3cd10dcd7bf7ac9a43356e6a73a8e9c48a2d9a6a56fd36b77eb64736f6c634300080b0033",
  "immutableReferences": {},
  "source": "//SPDX-License-Identifier:MIT\r\n\r\npragma solidity >= 0.5.0 < 0.9.0;\r\n\r\ncontract DDOS{\r\n    //address payable[] public AIPool;\r\n    address[] public AIPool;\r\n    address payable helper_node;\r\n    address supernode;\r\n    address[] rewardedNodes;\r\n    address[] victimNodes;\r\n    address public victim_node;\r\n    //address public ;\r\n    uint public bsize;\r\n    uint public minimumCollateral;\r\n    //uint public amount;\r\n    uint public noOfNodes;\r\n    mapping(address=>uint) public networkNodes;\r\n    \r\n    event bandwidth_help(address from_account,address for_account,string message,uint bsize);\r\n    function helped(address helper,address victim,uint _bsize) public{\r\n        bsize=_bsize;\r\n        emit bandwidth_help(helper,victim,\"helped for bandwidth\",bsize);\r\n        helper_node=payable(helper);\r\n        victim_node=victim;\r\n        //AIPool.push(payable(msg.sender));\r\n        victimNodes.push(victim_node);\r\n    }\r\n\r\n    constructor(){\r\n        supernode=msg.sender;\r\n        minimumCollateral=2 ether;\r\n    }\r\n\r\n    receive() external payable{\r\n        require(msg.value>=minimumCollateral,\"Please pay minimum 2 ether\");\r\n        if(networkNodes[msg.sender]==0){\r\n            noOfNodes++;\r\n            AIPool.push(msg.sender);\r\n        }\r\n        networkNodes[msg.sender]+=msg.value;\r\n        \r\n    }\r\n\r\n    function getBalance() view public returns(uint){\r\n        require(msg.sender==supernode,\"You are not supernode\");\r\n        return address(this).balance;\r\n    }\r\n    function victimAddress() public view returns(address){\r\n        return victim_node;\r\n    }\r\n\r\n    function helperAddress() public view returns(address payable){\r\n        return helper_node;\r\n    }\r\n\r\n    function retrieve_bsize() public view returns(uint ){\r\n        return bsize;\r\n    }\r\n    function reward() public{\r\n        require(msg.sender==supernode,\"You are not supernode\");\r\n        require(AIPool.length>=1,\"Nodes less than 1\");\r\n        \r\n        require(networkNodes[victim_node]>0,\"Victim node don't have funds for protection.\");\r\n        uint amount=retrieve_bsize() *1 ether ;\r\n        helper_node=helperAddress();\r\n        helper_node.transfer(amount);\r\n        networkNodes[victim_node]-=amount;\r\n        if(networkNodes[victim_node]==0){\r\n            noOfNodes--;\r\n        }\r\n        rewardedNodes.push(helper_node);\r\n        helper_node=payable(address(0));\r\n        bsize=0;\r\n    }\r\n    function nodeAssets(address nodeAddress) public view returns(uint){\r\n        return networkNodes[nodeAddress];\r\n    }\r\n\r\n\r\n    function getRewardedNodes() view public returns(address[] memory){\r\n        return rewardedNodes;\r\n\r\n    }\r\n    function getVictimNodes() public view returns(address[] memory){\r\n        return victimNodes;\r\n    }\r\n    function numberOfNodes() public view returns(uint){\r\n        return noOfNodes;\r\n    }\r\n\r\n    function allnodes() public view returns(address[] memory){\r\n        return AIPool;\r\n    }\r\n\r\n}\r\n\r\n//ganache 0x5ae964d40e53cfbFC352278091D0Cd2Ae44DF9b1\r\n//0x61268d96dcC4Dc4c0a606826e50778c59350d4dc",
  "sourcePath": "C:\\Users\\Admin\\Desktop\\Final\\web3lab\\contracts\\ddos.sol",
  "compiler": {
    "name": "solc",
    "version": "0.8.11+commit.d7f03943.Emscripten.clang"
  },
  "schemaVersion": "3.4.10",
  "updatedAt": "2023-01-17T07:23:54.642Z",
  "networkType": "ethereum",
  "devdoc": {
    "kind": "dev",
    "methods": {},
    "version": 1
  },
  "userdoc": {
    "kind": "user",
    "methods": {},
    "version": 1
  }
}